{
  "_format": "hh-sol-artifact-1",
  "contractName": "Counter",
  "sourceName": "contracts/Counter.sol",
  "abi": [
    {
      "inputs": [],
      "name": "count",
      "outputs": [],
      "stateMutability": "nonpayable",
      "type": "function"
    },
    {
      "inputs": [],
      "name": "get",
      "outputs": [
        {
          "internalType": "uint256",
          "name": "",
          "type": "uint256"
        }
      ],
      "stateMutability": "view",
      "type": "function"
    },
    {
      "inputs": [],
      "name": "number",
      "outputs": [
        {
          "internalType": "uint256",
          "name": "",
          "type": "uint256"
        }
      ],
      "stateMutability": "view",
      "type": "function"
    }
  ],
  "bytecode": "0x608060405234801561001057600080fd5b5061017f806100206000396000f3fe608060405234801561001057600080fd5b50600436106100415760003560e01c806306661abd146100465780636d4ce63c146100505780638381f58a1461006e575b600080fd5b61004e61008c565b005b6100586100a3565b60405161006591906100cb565b60405180910390f35b6100766100ac565b60405161008391906100cb565b60405180910390f35b600160005461009b9190610115565b600081905550565b60008054905090565b60005481565b6000819050919050565b6100c5816100b2565b82525050565b60006020820190506100e060008301846100bc565b92915050565b7f4e487b7100000000000000000000000000000000000000000000000000000000600052601160045260246000fd5b6000610120826100b2565b915061012b836100b2565b9250828201905080821115610143576101426100e6565b5b9291505056fea2646970667358221220d50a611128c5a22e4bccdc6de3b1d7085f088dc55c37793136d4724ac686cba964736f6c63430008110033",
  "linkReferences": {},
  "deployedLinkReferences": {}
}